:020000040800F2
:1000000078820020250400082D0400082F04000831
:100010003104000833040008350400080000000023
:10002000000000000000000000000000F5020008D1
:100030003904000800000000AD03000811040008A6
:100040003F0400083F0400083F0400083F04000884
:100050003F0400083F040008ED0E0008D50F00081B
:10006000F90F00081D100008411000083F040008A7
:100070003F0400083F0400083F0400083F04000854
:100080003F0400083F0400083F040008000000008F
:1000900000000000000000000000000065100008E3
:1000A0003D13000885130008611300083F04000891
:1000B000A9130008C9130008ED130008091100086E
:1000C0003F040008711100083F0400083F040008C5
:1000D0003F04000835140008611400080000000007
:1000E000110F0008411200083F0400080000000042
:1000F0000000000000000000000000003F040008B5
:10010000000000003F040008111400083F0400082C
:1001100000000000000000000000000000000000DF
:100120003F0400083F0400083F0400083F040008A3
:100130003F04000800000000000000000000000074
:100140000000000000000000000000003F04000864
:100150003F0400083F0400083F0400088D14000815
:10016000D91100083F040008000000000000000052
:10017000000000000000000000000000000000007F
:10018000000000003F040008000000000000000024
:100190003F04000800F002F800F064F814A696E8A6
:1001A000000CB244B344DA4501D100F05BF8BAE880
:1001B0000F000FA696E83000A5EB040504EB060738
:1001C000AAEB0704A7F101074FEA15154FEA34140B
:1001D000A4F10104AC4201D300F044F813F0010F84
:1001E00018BFFB1A43F0010300F001F8DBE71847E2
:1001F0004877000068770000103A24BF78C878C1BB
:10020000FAD8520724BF30C830C144BF04680C601C
:1002100070470000704700000023002400250026DE
:10022000103A28BF78C1FBD8520728BF30C148BF59
:100230000B6070471FB507F004F89DE8030000F05D
:1002400045FB00F021FB04000020002106F0C6F869
:10025000401C606000F0FEF91FBD10B5002000F0EA
:1002600031FD10BD00F04FFD1146FFF7E3FF0FB465
:1002700003F0ECFC0FBC03F0F7FC00F092FD03B4BC
:10028000FFF7EBFF03BC00F0DDFD000080F3098801
:100290007047EFF309807047684680F30988044887
:1002A0000078C00714BF0220032080F31488704731
:1002B00099780008DFF818C0EFF305831B0618BF14
:1002C0006047EFF31483DB0708BF604700DF704728
:1002D00097520008DFF818C0EFF305831B0618BF1C
:1002E0006047EFF31483DB0708BF604700DF704708
:1002F0000D550008EFF30980816911F8021CE1BB7C
:1003000090E80F1010B5E047BDE81040EFF3098CFE
:100310008CE80700214B93E80600914208BF704724
:1003200041B91EF0100F16D11D49086820F00100D8
:10033000086010E01EF0100F06BF2CED108A01209F
:10034000002081F825002CE9F00FC1F828C00CB47A
:1003500005F08EFC0CBC1A60D2F828C0BCE8F00F87
:1003600092F8250000280EBF6FF0020E6FF0120EFB
:10037000BCEC108A8CF30988704710B5094A1268E2
:10038000914209D8084C54F8214090E80F10A0473A
:10039000EFF3098C8CE80F0010BD00000C0000206A
:1003A00034EF00E0083E0008083E000810B505F0F4
:1003B00023FBBDE81040154B93E80600914208BFAF
:1003C0007047EFF3098C1EF0100F06BF2CED108A5A
:1003D0000120002081F825002CE9F00FC1F828C089
:1003E0000CB405F045FC0CBC1A60D2F828C0BCE87F
:1003F000F00F92F8250000280EBF6FF0020E6FF08C
:10040000120EBCEC108A8CF3098870470C00002097
:1004100010B505F0F5FCCCE710B504F03BFF05F096
:10042000EFFCC6E70948804709480047FEE7FEE7BA
:10043000FEE7FEE7FEE7FEE7FEE7FEE7FEE7FEE794
:1004400004480549054A064B704700002913000877
:1004500095010008787C002078820020787E0020BA
:10046000787E002000487047140100200FB400B5CA
:100470008DB010A9099000910B904FF0FF300A90B9
:1004800000200C90064878440690064878446A4656
:1004900007900F9909A800F0ABF90DB05DF814FBB7
:1004A000870300009F0300002DE9FF5F1D464FF00A
:1004B000FF3B91464FF000085F46D5E90146A96928
:1004C00001987F1C8847296A824688470028F6D110
:1004D000BAF1FF3F0CD0002E24F4C06419DD600691
:1004E00014D5BAF12B0F09D0BAF12D0F0ED103E0BC
:1004F000584604B0BDE8F09F44F48064A9690198AF
:100500007F1C8847761E8246002E02DDBAF1300F2E
:1005100003D0B9F1000F26D032E0A969761E019808
:100520007F1C44F400748847002E824605DDBAF132
:10053000780F06D0BAF1580F03D0B9F1000F10D0E0
:100540001EE0B9F1000F02D0B9F1100F18D1A9695E
:10055000761E01987F1C24F4007488478246102080
:1005600002E0082000E00A20814609E0A96908FBB2
:100570000908761E01987F1C44F40074884782465F
:10058000002E05DD4946504600F01DF90028EDDA41
:10059000E96901988847A00502D46FF00100A8E737
:1005A000E00725D1600613D5600502D5C8F100002B
:1005B00000E0404629680A1D2A600968220501D525
:1005C000087015E0220701D5088011E008600FE0EF
:1005D0002868011D29600068210502D580F8008087
:1005E00006E0210702D5A0F8008001E0C0F80080F5
:1005F00038467EE70B460146184600F029B94FF011
:10060000000200B5134694469646203922BFA0E862
:100610000C50A0E80C50B1F12001BFF4F7AF09076E
:1006200028BFA0E80C5048BF0CC05DF804EB89005F
:1006300028BF40F8042B08BF704748BF20F8022BA2
:1006400011F0804F18BF00F8012B704770477047BA
:100650007047000008487CB578440090074878440B
:10066000009C0546019004E020460168084480474C
:10067000241DAC42F8D17CBD0C7400000A7400004B
:1006800010B500F001F9001D10BD00BF515D000064
:1006900003F082BA0844401E491E8843704708216F
:1006A000001DF7E72DE9F04117460E460446FFF717
:1006B000F6FFA042054633D9002F1CBF06F1080003
:1006C00003F08AFA30467468F4B12168A94217D35E
:1006D00005F1080291423CBF6168416007D362683E
:1006E00061194A602268521B0A6041602560002F30
:1006F0001CBF06F1080003F099FA201DBDE8F08147
:1007000020466468002CE0D12946304600F0CAF843
:100710000028D7D1002F1CBF06F1080003F086FA8D
:100720000020BDE8F08110B5044600F0A8F801688B
:100730002046BDE810400122B4E770B516460D46CC
:10074000041F002808BF70BD002E1CBF05F1080063
:1007500003F042FA2B465868002818BFA04238BF61
:100760000346F8D31968CA18A24218BF5C6003D1C7
:1007700022681C461144196021680A19824218BF78
:10078000606004D142686260006808442060002E06
:100790001CBF05F1080003F049FA70BD10B504460E
:1007A00000F06DF801682046BDE810400122C4E762
:1007B00010B5FFF76DFF006810BD10B50446FFF7D8
:1007C00067FF046010BD3A2800D2303820F02002C4
:1007D000412A01D3A2F13700884201D34FF0FF3004
:1007E0007047000002681144137801601846704792
:1007F000D16005497944516104497944116200216D
:100800001161114600F0A4B8EDFFFFFF3F010000A9
:10081000426842B1016811F8013B23B1521EC0E9A0
:100820000012184670470121C160881E7047426857
:100830005AB1C368016843B983688B4205D0491E29
:10084000521CC0E90012002070474FF0FF30704783
:100850002DE9F041074615460E461020FFF763FFCD
:1008600004000AD06760C4E9026500F012F801686C
:10087000216004600020BDE8F0810120FBE710B595
:10088000FFF7F0FD083010BD10B5FFF7EBFD20308D
:1008900010BD10B5FFF7E6FD383010BD704770474A
:1008A0007047704738B504460A4600206946AFF3E2
:1008B0000080002808BF38BD02460099204600F09D
:1008C0004EFA012038BD012000F074BAF8B5AFF33C
:1008D0000080054600200C460C2000BF0646A819E3
:1008E000A0420DD9324669460020AFF300800700D0
:1008F00008BF00F05FFA0098A04218BF0546C4196F
:10090000FFF7BDFF05600746F01D20F00700461900
:10091000284600F00AF8B44208BFF8BDA21B3146D1
:100920003868BDE8F84000F01ABA002140F8041B0E
:1009300040F8041B03F062B90C20704710B5044660
:10094000FFF79EFE0068005D00F0010010BD000092
:100950002DE9F34F4FF0000A0C4656468DB00120AA
:100960000C9001F10C000B9062690B9801219047EB
:10097000051E2DD0252D2CD0216A8847C0B1626973
:100980000B9801219047216A88470028F7D16269B6
:10099000411E0B98904700E0761CA1690D9888478E
:1009A000216A88470028F7D1E1690D988847DBE77D
:1009B000A1690D988847A842074601D1761CD3E764
:1009C000E1690D9888477F1C02D1BAF1000F6FD002
:1009D0006BE162690B9800273D46394690472A280B
:1009E00004D162690B98012190470125DFF8D0827C
:1009F00062690B9801219047A0F130010A290AD2BF
:100A00004745E5DC07EB870100EB4107303FDFD4CA
:100A100045F01005ECE7E90601D46FF000476C28BB
:100A20000AD04C2814D0682815D06A280DD0742814
:100A30001CD07A281AD01DE062690B9801219047DA
:100A40006C2802D045F0040514E045F002050DE0E5
:100A500045F020050AE062690B980121904768285B
:100A600002D045F0080505E045F4006562690B9881
:100A700001219047C4E9015765283DD019DC582869
:100A80007AD00CDC452837D004DC252826D0412834
:100A90009ED131E046282FD0472899D12CE05B2801
:100AA00077D0612828D063287CD0642823D15AE0ED
:100AB000F6E06F2848D008DC66281DD067281BD0D8
:100AC000692821D06E2816D127E0702845D07328D8
:100AD00068D0752847D078280DD14DE0A1690D98D0
:100AE0008847252805463FF469AFE1690D98884796
:100AF0006D1C3FF46AAFD8E00D9923466A466FF04B
:100B00000100AFF30080C5E045F0400023464FF000
:100B100000026060A80736D43EE0E8077FF447AFE4
:100B20002068011D21600068290501D506701BE7BA
:100B3000290701D5068017E7A90703D5F117C0E9F2
:100B4000006111E706600FE745F0400023464FF0D3
:100B500008026060A80716D41EE040F60E0125EAE0
:100B60000100606016E045F0400023464FF00A02A5
:100B70006060A80707D40FE045F040006060A80758
:100B800008D5234610220D996FF00100AFF30080C5
:100B900080E007E0102223460D996FF00100FFF777
:100BA00083FC77E04FF0000963284F46C8464B4668
:100BB000CB4602D05B2806D038E0E80601D40120FD
:100BC000A060012732E06269D4F80CB00B980121D3
:100BD00090475E2807D14FF0010949466269D4F871
:100BE0000CB00B989047216939B900210A4603AB34
:100BF00043F82120491C0829FADBD8B3216949B3FD
:100C000008F1010862690B98012190475D28F4D131
:100C1000B9F1000F09D0002003A951F82020D243D8
:100C200041F82020401C0828F7DB03AB206900288E
:100C300020794FEA40701ED05B462246CDF80080F6
:100C4000CDE901970D9900286FF0010020DAAFF38C
:100C500000801FE0C11703AA00EBD1614B1121F006
:100C60001F0102EB8302411A1368012088400343ED
:100C70001360C7E719E00D99224600286FF00100C4
:100C8000009702DAAFF3008004E0AFF3008001E0E8
:100C9000AFF3008000280ADA401C06D10C9820B17E
:100CA0004FF0FF300FB0BDE8F08F5046FAE7E9078C
:100CB00001D10AF1010A064400200C9054E600001C
:100CC000CCCCCC0C2DE9F0410646FFF7E2FD804686
:100CD000454613E016B1E068B0420ED120682860A6
:100CE000D4E90101D8F8007088472046FFF756FD87
:100CF000D8F80000B842EBD100E025462C68002C63
:100D0000E8D1BDE8F0817546FFF7ACFBAE460500C3
:100D10006946534620F00700854618B020B5FFF716
:100D20008FFBBDE820404FF000064FF000074FF06A
:100D300000084FF0000BAC46ACE8C009ACE8C009B5
:100D4000ACE8C009ACE8C00921F007018D46704746
:100D5000801A0844401E491E88431044704770B5ED
:100D6000144605468C464368002B18BF634538BFC0
:100D70001846F8D302681044604508D066466046BD
:100D800004220821FFF7E4FF811B8446641A2946E8
:100D9000CCF80040BDE8704000220CF10400FFF7E1
:100DA000CCBC10B50446AFF300802046BDE810402F
:100DB000FFF765BA10B500F051F8BDE8104000F03B
:100DC00048B800000000000030B44FF0013C50F87B
:100DD000042B51F8043BCCFA52F4D51A20D1FCB9BB
:100DE00050F8042B51F8043BCCFA52F4D51A17D121
:100DF000B4B950F8042B51F8043BCCFA52F4D51A8C
:100E00000ED16CB950F8042B51F8043BCCFA52F4D3
:100E1000D51A05D1002CDAD030BC4FF00000704755
:100E200029BAB1FA81F111F01801D1F12000844002
:100E3000F2D1CA40CB4012F0FF0213F0FF0330BCE6
:100E4000D01A704701491820ABBEFEE72600020009
:100E50007047002801D0FFF7F5BF704710B5012893
:100E600005D0002103A000F021F8012010BD09A148
:100E7000F8E7000053494752544D454D3A204F750D
:100E800074206F662068656170206D656D6F727982
:100E9000000000003A2048656170206D656D6F723A
:100EA0007920636F727275707465640070B5054661
:100EB0000C460A2000E06D1C00F011F835B12878CE
:100EC0000028F8D102E0641C00F009F814B1207881
:100ED0000028F8D1BDE870400A20AFF3008008B5C3
:100EE00069468DF800000320ABBE08BD80B540F216
:100EF000D410C2F200000068002818BF804743F6F3
:100F00001440C4F20100016841F00101016080BD9C
:100F100010B543F61444C4F20104206840050BD513
:100F200040F2DC10C2F200000068002818BF8047C1
:100F3000206840F480602060206800050BD540F2F6
:100F4000E010C2F200000068002818BF8047206847
:100F500040F4006020602068C0040BD540F2E4102B
:100F6000C2F200000068002818BF8047206840F4E3
:100F700080502060206880040BD540F2E810C2F257
:100F800000000068002818BF8047206840F4005027
:100F90002060206840040BD540F2EC10C2F2000043
:100FA0000068002818BF8047206840F48040206017
:100FB0002068000458BF10BD40F2F010C2F20000DB
:100FC0000068002818BF8047206840F40040206077
:100FD00010BD000080B540F2D810C2F200000068D9
:100FE000002818BF804743F61440C4F2010001688E
:100FF00041F00201016080BD80B540F2F410C2F200
:1010000000000068002818BF804743F61440C4F26F
:101010000100016841F00401016080BD80B540F22B
:10102000F810C2F200000068002818BF804743F69D
:101030001440C4F20100016841F00801016080BD64
:1010400080B540F2FC10C2F200000068002818BF12
:10105000804743F61440C4F20100016841F01001DA
:10106000016080BD10B543F61444C4F20104206849
:1010700080060BD540F20020C2F200000068002874
:1010800018BF8047206840F020002060206840069C
:101090000BD540F20420C2F200000068002818BFFF
:1010A0008047206840F040002060206800060BD593
:1010B00040F20820C2F200000068002818BF8047F4
:1010C000206840F0800020602068C0050BD540F209
:1010D0000C20C2F200000068002818BF804720687A
:1010E00040F4807020602068800558BF10BD40F239
:1010F0001020C2F200000068002818BF8047206856
:1011000040F40070206010BD45F20040C4F20000C1
:10111000416940F2A452C2F200028B0711600FD461
:101120004A0616D4C90658BF7047016841F4806169
:10113000016040F21820C2F200000068B8B1004718
:10114000816940F21C20C2F200000068116070B199
:10115000004740F21421C2F200010069096840F220
:10116000A152C2F20002107009B1C0B20847704724
:1011700045F60000C4F20000416940F2A452C2F2F8
:1011800000028B0711600FD44A0616D4C90658BF57
:101190007047016841F48061016040F22420C2F28E
:1011A00000000068B8B10047816940F22820C2F20F
:1011B00000000068116070B1004740F22021C2F2C7
:1011C00000010069096840F2A152C2F200021070E9
:1011D00009B1C0B20847704745F60040C4F20000AC
:1011E000416940F2A452C2F200028B0711600FD491
:1011F0004A0616D4C90658BF7047016841F4806199
:10120000016040F23020C2F200000068B8B100472F
:10121000816940F23420C2F200000068116070B1B0
:10122000004740F22C21C2F200010069096840F237
:10123000A152C2F20002107009B1C0B20847704753
:10124000B0B543F61444C4F201042068800358BFCB
:10125000B0BD42F60C05C4F200052868C0050BD5E8
:1012600040F2CC10C2F200000068002818BF80478E
:10127000286820F480702860286880050BD540F22B
:10128000D010C2F200000068002818BF804728680C
:1012900020F400702860206840F400302060B0BD69
:1012A00080B543F60400C4F20200416801F00C026C
:1012B00042F20041082AC0F2F40106D0042A20D1EB
:1012C00041F20021C0F27A011BE0D0F800C00368AF
:1012D000026803F03F03C2F3881E5FEA4C2241F22A
:1012E0000022C0F27A0258BF0A46B2FBF3F102684C
:1012F0000223C2F301420EFB01F103EB4202B1FBF8
:10130000F2F140F23C02C2F200021160406847F282
:101310002841C0F30310C0F60001085C116821FAEF
:1013200000F0106080BD00004EF68850CEF2000044
:10133000016841F4700101607047000044F2100040
:10134000C4F20100016821F00101016040F2502067
:10135000C2F200000068002808BF70470047000084
:1013600044F61000C4F20100016821F0010101609F
:1013700040F23C20C2F200000068002808BF70471D
:101380000047000044F21040C4F20100016821F05F
:101390000101016040F23820C2F20000006800281C
:1013A00008BF7047004700001020C4F20000016829
:1013B00021F00101016040F24020C2F2000000680B
:1013C000002808BF7047004740F21040C4F20000F8
:1013D000016821F00101016040F24420C2F20000E6
:1013E0000068002808BF70470047000040F6100062
:1013F000C4F20000016821F00101016040F24820C0
:10140000C2F200000068002808BF704700470000D3
:1014100040F61040C4F20000016821F001010160B3
:1014200040F24C20C2F200000068002808BF70475C
:101430000047000010B541F20004C4F20104206826
:10144000800658BF10BD40F25420C2F2000001686F
:1014500011B16068C0B288472068606810BD0000A4
:1014600010B544F20044C4F200042068800658BF5E
:1014700010BD40F25820C2F20000016811B160684E
:10148000C0B288472068606810BD000010B541F206
:101490000044C4F201042068800658BF10BD40F229
:1014A0005C20C2F20000016811B16068C0B28847D8
:1014B0002068606810BD000070B540F29850C2F21C
:1014C000000002F0F5F940F2B814C2F20004204620
:1014D00001F0B2FF42F6E10540F20006C0F6000559
:1014E000C0F60006284621463246FFF783F840F250
:1014F0007414C2F20004204601F09EFF28462146E3
:101500003246FFF777F840F26420C2F2000002F0A2
:10151000F7FA40F23450C2F2000001F0ABFC40F2A6
:10152000A010C2F2000001F063F947F2BC71C0F6EE
:10153000000101F10804046040F21C50C2F20000F6
:1015400001F056F9046040F28810C2F2000001F088
:101550004FF9046040F20050C2F2000001F048F977
:10156000046070BD80B5FFF79BFE4EF6FC50CEF2D6
:101570000000016841F08071016041F20000CEF28C
:101580000000016841F00101016080BD0000000021
:1015900010B540F2A050C2F2000000781EA1002851
:1015A00047F66C40C2F2000018BF083191ED000B05
:1015B00047F618140068C2F2000484ED080B05F029
:1015C00008FA41EC100B40F26020C2F20000006803
:1015D00084ED040B05F0FDF941EC100B40F2A8007E
:1015E000C2F20000006884ED060B05F0F2F941EC50
:1015F000100B47F64810C2F20000006884ED020BA1
:1016000005F084FD41EC100B84ED000BBDE81040AB
:1016100000F086BC00BF00BF00000000000000001A
:10162000000000000000F03F2DE9F04F83B040F2D1
:101630009850C2F2000002F0EBF840F21858C2F2E3
:101640000008002888F8000000F0048340F2A40796
:10165000C2F200073978062900F2FC82DFE811F0B7
:10166000070015006500FA02FA0286006B0140F2DD
:101670002901C2F20001085C2A2840F0EB8240F206
:10168000AC50C2F200000078C5E140F22909C2F274
:10169000000940F2AC5A19F80010C2F2000A9AF898
:1016A0000000412908BF002800F05082422908BFED
:1016B000002800F06A82432908BF002800F06782F2
:1016C000442908BF002800F0C082232908BF002851
:1016D00040F0C08240F26424C2F20004204602F0CE
:1016E000CBF9204602F06CF90FF298532046002106
:1016F000002201F0EDFB0FF29853204600210A2250
:1017000001F0E6FB0FF29053204600211E2201F06B
:10171000DFFB0FF2905320460021282201F0D8FB76
:10172000204602F0A9F9022093E240F22901C2F218
:101730000001085C2A2800F00B82422800F0128287
:10174000412840F0878240F2B050C2F200000021F0
:10175000016040F24000C2F20000017040F2AC5063
:10176000C2F2000001210170062072E240F26425FD
:10177000C2F20005284602F023F90FF2E44328469E
:1017800019210A2201F0A4FB40F27204C2F2000403
:10179000284619211922234601F09AFB284602F017
:1017A0006BF940F2AC59C2F2000999F8000046F218
:1017B000407A0028C2F2000A48D0DAF80000042873
:1017C00044DC02280BD078B998F8001040F22902C6
:1017D000C2F20002515C422931D0022804D12D21ED
:1017E0000130A170CAF8000098F8000040F2290109
:1017F000C2F20001085CDAF8001040F2642560547F
:10180000481C0021C2F20005CAF8000021542846F5
:1018100001F0E0FB2D262846002127224B230096CD
:1018200001F0B8FB2846012101F0D4FB284619211C
:101830001922234601F04CFB284602F01DF9DAF884
:1018400000000528A4BF002089F8000098F80000D7
:1018500040F22901C2F20001095C99F80000442914
:1018600008BF002840F0D48040F26425C2F2000591
:101870004FF00108284687F8008002F0A1F847F6EB
:10188000F903C0F60003284600210022002701F0DA
:101890001FFB47F60913C0F60003284600210A2261
:1018A00001F016FB47F6DA03C0F6000328460021D4
:1018B000142201F00DFB47F6EA03C0F600032846A8
:1018C00000211E2201F004FB47F62713C0F6000397
:1018D00028460021282201F0FBFA284650210A223E
:1018E00002F076F8284602F0C7F840F26022DEA146
:1018F000C2F2000202AB2046FEF7B8FD06462846BB
:1019000002F05EF847F61710C0F60000D8A3022ECA
:1019100008BF034628460521002201F0D9FA4FF4FA
:10192000FA7000F039FFCAF80070277089F800805B
:1019300003B0BDE8F08F40F26425C2F200052846EE
:1019400002F03EF8284602F03BF8C4A328461E21C8
:101950000A2201F0BDFA40F2400AC2F2000A28460B
:1019600021211922534601F0B3FA284602F084F8E7
:1019700040F2AC5BC2F2000B9BF8000040F2B059A1
:1019800040F22904C2F20009C2F20004B8B3D9F847
:101990000000012833DC20B998F80010615C41296F
:1019A00026D098F8001040F26425615CC2F2000570
:1019B0000AF8001001300021C9F800000AF80010F0
:1019C000284601F007FB2D262846002127224B231D
:1019D000009601F0DFFA2846012101F0FBFA2846C3
:1019E00021211922534601F073FA284602F044F8E7
:1019F000D9F800000228A4BF00208BF8000098F856
:101A00000000215C9BF80000442908BF002843D057
:101A10002A2940F01F81002840F01C8140F26424F4
:101A2000C2F20004204601F0CBFF47F6F903C0F6EE
:101A3000000320460021002201F04AFA47F609136C
:101A4000C0F60003204600210A2201F041FA47F6C1
:101A5000DA03C0F6000320460021142201F038FA10
:101A600047F6EA03C0F60003204600211E2201F0DB
:101A70002FFA47F62713C0F600032046002128223C
:101A800001F026FA204650210A2201F0A1FF20464B
:101A900001F0F2FF0120DCE040F26425C2F2000513
:101AA0004FF00108284687F8008001F089FF47F6CB
:101AB000F903C0F60003284600210022002401F0AB
:101AC00007FA47F60913C0F60003284600210A2248
:101AD00001F0FEF947F6DA03C0F6000328460021BC
:101AE000142201F0F5F947F6EA03C0F60003284690
:101AF00000211E2201F0ECF947F62713C0F600037F
:101B000028460021282201F0E3F9284650210A2224
:101B100001F05EFF284601F0AFFF284601F050FFBC
:101B200047F61713C0F6000328460521002201F0EE
:101B3000CFF94FF4FA7000F02FFEC9F800408AF890
:101B400000408BF8008003B0BDE8F08F5DA07DE021
:101B500040F2AC50C2F20000007800287AD100F0C8
:101B60001DFD97E746F24070C2F2000000210160BF
:101B700040F27200C2F20000017040F2AC50C2F2BA
:101B8000000001210170052063E04CA05EE049A047
:101B900000F0FCF840F2642547F6EA0B47F62716FA
:101BA0000D24C2F20005C0F6000BC0F6000602E0EC
:101BB0000134502C4CD0284621460F2201F008FF5A
:101BC000322000F0E9FD284601F056FF98F80000A9
:101BD00019F800002A28EBD19AF800000028E7D174
:101BE000284601F0EDFE47F6F903284600210022C1
:101BF000C0F6000301F06CF947F6091328460021EE
:101C00000A22C0F6000301F063F947F6DA0328461A
:101C100000211422C0F6000301F05AF928460021E1
:101C20001E225B4601F054F9284600212822334643
:101C300001F04EF9284650210A2201F0C9FE28463B
:101C400001F01AFF00203870B2E718A000F09EF8EB
:101C50000020387003B0BDE8F08F00BF54733A0025
:101C60004D702D54733A000025642D25640000004A
:101C7000466F726D61746F20696E636F7272656317
:101C8000746F000051756520636F6E74726F6C0025
:101C90006465736561733F00412E20536F62726506
:101CA00000000000422E20537562000073616C69D1
:101CB00064610000696E7075740000006572726F77
:101CC00072000000636F6E740000000040F29854D0
:101CD00040F2195540F29456C2F20004C2F20005D7
:101CE000C2F20006204601F0DBFD3168287008468C
:101CF000012103F065FAF5E784B040F26424C2F2F2
:101D00000004204601F05CFE47F6F903C0F600032C
:101D100020460021002201F0DBF847F60913C0F647
:101D20000003204600210A2201F0D2F847F6DA0328
:101D3000C0F6000320460021142201F0C9F847F63E
:101D4000EA03C0F60003204600211E2201F0C0F87D
:101D500047F62713C0F6000320460021282201F091
:101D6000B7F8204650210A2201F032FE204601F049
:101D700083FE01AC204600214FF0FF3201F002FF4C
:101D80000298C007F6D0FFF74FFCF3E7B0B540F27A
:101D90006424C2F200040546204601F011FE5AA355
:101DA00020460021002201F093F82046292100223C
:101DB0002B4601F08DF856A320460A21082201F097
:101DC00087F847F63515C0F6000520460A210A2295
:101DD0002B4601F07DF820460A2111222B4601F006
:101DE00077F820460A2118222B4601F071F8204688
:101DF0000A211F222B4601F06BF820460A212622D9
:101E00002B4601F065F820460A212A222B4601F0D4
:101E10005FF840A320460021182201F059F847F648
:101E2000D805C0F600052046022118222B4601F0F5
:101E30004FF82046072118222B4601F049F820468A
:101E40000C2118222B4601F043F8204611211822BC
:101E50002B4601F03DF82046162118222B4601F0B2
:101E600037F820461B2118222B4601F031F8204676
:101E7000202118222B4601F02BF82046252118227C
:101E80002B4601F025F820462A2118222B4601F086
:101E90001FF820462A2118222B4601F019F8204667
:101EA0002F2118222B4601F013F820463421182246
:101EB0002B4601F00DF82046392118222B4601F05F
:101EC00007F820463E2118222B4601F001F8204653
:101ED000432118222B4600F0FBFF20464821182200
:101EE0002B4600F0F5FF20464D2118222B4600F02E
:101EF000EFFF09A320464F21182200F0E9FF2046FA
:101F0000BDE8B04001F0B8BD477261666963610029
:101F10005E0000003C0000003E00000000000000E9
:101F20002DE9F04F81B02DED088B98B047F61810D1
:101F3000C2F2000090ED060B9FEDFD1B044653EC32
:101F4000112B51EC100B04F0E7FD41EC100B02F0EB
:101F500087F9B0EE40AA94ED041BF0EE60AA9FED65
:101F6000F60B53EC112B51EC100B04F03FFB41EC42
:101F7000100B01F0C9FFB0EE408AF0EE608A9FEDD1
:101F8000F00B94ED041B58EC109B53EC112B4846BE
:101F90004146A24604F02AFB41EC100B01F0B4FFCD
:101FA00054EC1A5BB0EE409A284621462A46234656
:101FB000F0EE609A04F0B0FD9FEDE30B064653ECA3
:101FC000102B0F4604F05EFA02460B4641EC1A0B4A
:101FD0003046394604F00AFB9FEDDD0B02460B4606
:101FE00051EC100B04F0A4FF41EC100B02F01AFBB3
:101FF00051EC100B4A46434604F08EFDB0EE4A0AFF
:10200000F0EE6A0A06460F4602F00CFB53EC102B6A
:102010003046394604F080FD9AED040B06460F4623
:1020200053EC102B2846214604F076FD02460B4661
:102030003046394604F0DAFA41EC100B01F000FFAB
:102040009FEDC51B51EC10BB53EC112B5846CDE94D
:102050000D231591CDF844B004F05EFD9FEDC00B4B
:1020600059EC18AB04460D4653EC102B504649462C
:10207000CDF848A0CDF83C9004F04EFD58EC192B5B
:1020800007460C900E460891204629464346139277
:1020900004F042FD3A46334604F0F4F99FEDFA0BA2
:1020A00053EC102BCDE9062304F0ECF99FEDF80B6F
:1020B000CDE91610159953EC102B5846CDE90423A1
:1020C00004F02AFD9FEDF40B04460F4653EC102B51
:1020D0005046494604F020FD064603902046139CD6
:1020E0000D460291394622464346C24604F014FD8D
:1020F00032462B4604F0C6F99FEDE90B0B4651EC36
:1021000010BB02465846019104F012FFDDE9163279
:1021100004F06CFA024647F61810C2F2000090ED87
:10212000000B0B4690ED049B51EC100B04F0F4FCFB
:102130009FEDDD0BCDE9091041EC180B53EC102B92
:1021400051EC190B04F0E8FC9FEDD90B02460B464D
:1021500051EC100B04F04AFA41EC100B01F070FE48
:1021600058EC106BDDE90D2330464146109604F023
:10217000D3FC2246534604F0CFFC0C9A089B04F093
:1021800081F9DDE9062304F07DF9DDE904238146C8
:102190000D900F460E9130464146CDF82C8004F04C
:1021A000BBFC22465346CDF850A004F0B5FCDDE957
:1021B000023204F067F90B4601990246584604F0D2
:1021C000B7FE4A463B4604F011FA024647F618109D
:1021D000C2F2000090ED000B0B4690ED02AB90EDCB
:1021E00008BB51EC100B08900C9104F095FC9FED8E
:1021F000B20B55EC1B4B56EC109B83468A4641ECC8
:10220000190B204629464A46334604F0B8FF0028F9
:10221000159818BF8046CDF80C80DDE9108018BFF6
:102220008046204629464A46334604F0A8FF0E99C8
:102230000028169818BF014605910D99179818BFE8
:1022400001460491204629464A463346069407959E
:1022500004F095FF0028099818BF82460A98CDF827
:1022600024A018BF834647F6F80A204629464A4666
:102270003346CDF828B0C2F2000ACB4604F07FFF07
:10228000002850469FED8E0B08BF1030039990ED4B
:1022900000BB53EC102B404604F03EFCDDF84C90A4
:1022A0000B4614990246484604F036FC9FED860B17
:1022B00007460C4612980F9953EC102B04F02CFC97
:1022C0003A46234604F0DEF89FED810B53EC102BC9
:1022D00004F0D8F89FED800B53EC102B04F01CFC9D
:1022E000DDE9042304F082F9DDF820800C9B4246EE
:1022F00004F012FC53EC1B2B04F0C4F807460C4608
:10230000DDE906015A4633460AF1180504F037FFA5
:10231000002818BF0AF1080595ED000BDDE9093228
:1023200051EC100B04F004FE00F01EB800BF00BF1B
:102330000000AE47E17A843F613255302AA9933FCD
:10234000613255302AA9833F0000BEC93CBD2340FD
:10235000000000000000F03FC8DD534252D4185B7B
:1023600054FD6286638A025B02460B46384621466C
:1023700004F088F841EC100B47F64010C2F2000060
:102380000C9B80ED000B51EC1A0B424604F0D0FD83
:102390009FED530B83460C461198159953EC102B67
:1023A0000A920C9304F0B8FB0B4614990246484677
:1023B00004F0B2FB9FED4C0B05460F4612980F99A7
:1023C00053EC102B04F0A8FB2A463B4615900E4612
:1023D00004F058F89FED460B55EC107B3A462B461F
:1023E00004F050F89FED440B58EC109B4A464346CE
:1023F00004F092FBDDE9163204F0F8F85A46234661
:1024000004F08AFB9AED000B9AED04AB53EC102B11
:1024100004F038F841EC100B1098DDE90A210C9B10
:102420008AED000B8AED028B04F076FB02460B4628
:10243000DDE9130104F070FB024615980B463146A6
:1024400004F020F83A462B4604F01CF84A4643466E
:1024500004F062FBDDE90D2304F0C8F85A46234678
:1024600004F05AFB53EC1A2B04F00CF841EC100B5F
:102470008AED069B8AED040B18B0BDEC088B01B009
:10248000BDE8F08F00BF00BFCB75F70E2AA0105B30
:1024900007B7FA4B7086515B09AD9CA43C6E66DBB6
:1024A000D00BA7CE327847DB53A0941B7A3115C0EE
:1024B000DC51DAA713E29E3F00000000000000009C
:1024C00088E25B1F56F438DBFE034F562DC1345BA8
:1024D000BD35C872AF8A0F5BABAAAAAAAAAA2AC046
:1024E00030B4DDF84BC640DB50BCDDF84BC6305B8A
:1024F0005B9FDDF84BC6305BABAAAAAAAAAA1A401A
:1025000070B582B040F26424C2F20004204600217B
:1025100000F060FD47F67046C2F2000631683025D3
:102520004B1C20460022009500F034FD204601217E
:1025300000F050FD47F61810C2F2000090ED020BBB
:1025400051EC100B03F06CFF9FED130A01EE100A23
:1025500021EE000AB2EE041A80EE010ABDEEC00AB6
:1025600010EE100A2828A8BF282010F1280FD8BF85
:102570006FF027003168C0F11802204601F028FAF8
:102580003068411C5228C8BF00212046316002B08B
:10259000BDE8704001F070BA0000204210B540F272
:1025A0006424C2F20004204601F00AFA47F6F90357
:1025B000C0F6000320460021002200F089FC47F607
:1025C0000913C0F60003204600210A2200F080FC17
:1025D00047F6DA03C0F6000320460021142200F07B
:1025E00077FC47F6EA03C0F60003204600211E22CE
:1025F00000F06EFC47F62713C0F6000320460021CA
:10260000282200F065FC204650210A2201F0E0F962
:102610002046BDE8104001F02FBA000070470000CE
:1026200080B5FEF73DFE40F23C00C2F200000068BB
:1026300080BD00000000000080B5FEF731FE40F2D2
:102640003C0043F60801C2F20000C4F20201006837
:102650000968C1F382210439032988BF80BDDFE8FE
:1026600001F00211070C04F0CBF99FED130B0DE004
:1026700004F0C6F99FED0C0B08E004F0C1F99FEDE2
:10268000080B03E004F0BCF99FED090B53EC102B91
:1026900004F042FA04F070F980BD00BF00BF00BF33
:1026A000000000000000B03F000000000000C03F3C
:1026B000000000000000D03F000000000000E03FEC
:1026C00080B5FEF7EDFD40F23C0043F60801C2F292
:1026D0000000C4F2020100680968C1F34231043904
:1026E000032988BF80BDDFE801F00211070C04F068
:1026F00087F99FED130B0DE004F082F99FED0C0BB1
:1027000008E004F07DF99FED080B03E004F078F990
:102710009FED090B53EC102B04F0FEF904F02CF99B
:1027200080BD00BF00BF00BF000000000000B03F40
:10273000000000000000C03F000000000000D03F8B
:10274000000000000000E03F70B541F20406CEF248
:10275000000604F055F9044640F23C00C2F20000C5
:1027600000680D4604F04CF99FED090B53EC102B5B
:1027700003F03CFF22462B4604F0CEF904F0FCF8AF
:102780000021316031688142FCD370BD00BF00BFC1
:102790000000000000408F4070B541F20406CEF208
:1027A000000604F02DF9044640F23C00C2F200009D
:1027B00000680D4604F024F99FED090B53EC102B33
:1027C00003F014FF22462B4604F0A6F904F0D4F8D7
:1027D0000021316031688142FCD370BD00BF00BF71
:1027E0000000000000408F40007970470171704781
:1027F00047F28471C0F600010831016000210171C7
:102800007047000070470000806850F821000168A0
:102810004968084770B5044600790021E180A8B1F5
:102820000025012604E000BF2079013585420DD244
:10283000A06850F825000168496888470028F3D04F
:10284000E08806FA05F10843E080EDE7E08870BD16
:1028500070470000806850F82100114603681A682C
:1028600010470000B0B504460079E180002808BF99
:10287000B0BD0025A068E18850F82500E940026855
:1028800001F0010112689047207901358542F1D3AA
:10289000B0BD000000797047B0B5054601718800F1
:1028A0000C4601F059F9002CA86008BFB0BD00200B
:1028B000002100BFAA6842F8210001318C42F9D101
:1028C000B0BD0000704700007047000047F29471EF
:1028D000C0F600010831016000210171816070477C
:1028E00010B5044647F294702179C0F60000083014
:1028F000206021B1A068002818BF01F02BF9204604
:1029000010BD000010B5044600F058F8207BA26806
:1029100040004FF0030CD4F800E011680CFA00F30B
:10292000994311600121136801FA00F01843106007
:10293000DEF8002020460021BDE8104010470000CE
:1029400010B5017B836849004FF0030CD0F800E01C
:102950001C680CFA01F224EA02021A6001221C68C7
:1029600002FA01F121431960DEF800200021BDE8E0
:1029700010401047B0B51446054600F01FF8287BFC
:10298000AA6841000223156803FA01F12943116086
:102990006FF01F0101EB8001242308283CBF202396
:1029A00081000F20D558884025EA0000D05004F05F
:1029B0000F00D55888402843D050B0BD10B5C1F3A2
:1029C0000312042A4FF0010C25D80024C4F202049B
:1029D0004FF0010EDFE802F01603080D120004F5B7
:1029E00080644FF0020E0DE004F500644FF0040E19
:1029F00008E004F540644FF0080E03E004F580544D
:102A00004FF0100E43F630028460C4F202021368E5
:102A100043EA0E031360CAB201F00F0112094FF42A
:102A2000803342730CFA01F28B400173C0E9042336
:102A3000806849000323046803FA01F124EA0103D2
:102A40000360436823EA0202426082688A4382602C
:102A500082680A438260C26822EA0101C16010BD37
:102A6000014680680A690069104018BF012008719A
:102A700070470000017B806849000122C36802FAA8
:102A800001F11943C1607047826800F114030171BC
:102A9000002918BF00F1100318689169084390617C
:102AA00070470000017B806849000222C36802FA77
:102AB00001F11943C1607047017B427B41EA021179
:102AC000FFF77CBF10B504460068026820469047B7
:102AD000207910BD10B50446FFF770FF207BA26877
:102AE00040004FF0030CD4F800E011680CFA00F33A
:102AF000994311600121136801FA00F01843106036
:102B0000DEF8002020460021BDE8104010470000FC
:102B10004068016841F080010160704740684FF6ED
:102B20007F720168114001607047000040684FF6F5
:102B3000FC73026801F003011A400260026811434D
:102B400001607047000000002DE9F04F8DB007468E
:102B5000DDF85880C81F994692460E4605242F2856
:102B60004FF0010500F24C80DFE800F0284A4A4AA5
:102B70004A4A4A4A4A4A4A184A4A284A4A4A4A4A09
:102B80004A4A4A4A3A4A4A4A3A4A4A4A4A4A4A4AC5
:102B90004A184A4A4A4A4A4A4A4A4A1843F60000E8
:102BA000C4F2000000F58060786043F64000C4F293
:102BB00002000168062441F400411DE043F60000D4
:102BC000C4F2000000F57840786043F64000C4F29B
:102BD0000200416841F480514160FFF771FD0EE051
:102BE00043F60000C4F20000786043F64000C4F2EF
:102BF0000200016841F480410160FFF71DFD0546B8
:102C000007F1080051462246FFF7B4FE07F1200005
:102C100031462246FFF7AEFE07F13800494622460C
:102C20000097FFF7A7FE284603F0EAFE9FED700B22
:102C3000064653EC102B8B4603F06EFFCDE90B10CC
:102C4000404603F0DDFE9FED6C0B07460C4653EC4F
:102C5000102B3046594603F05FFF9FED690BCDE91D
:102C6000091053EC102B3046594603F055FF9FEDE9
:102C7000660BCDE9071053EC102B3046594603F094
:102C80004BFF9FED630BCDE9051053EC102B304645
:102C9000594603F041FF9FED600BCDE9031053EC63
:102CA000102B3046594603F037FF9FED5D0BCDE901
:102CB000011053EC102B3046594603F02DFF9FEDC9
:102CC0005A0B81468A4653EC102B3046594603F086
:102CD00023FF83460E4607254FF0070802E000BF9A
:102CE000A8F101085FFA88F007281BD8DFE800F098
:102CF0000E1D2935414D5904DDE90B103A46234696
:102D000004F03DFA002808BF0725E9E75846314698
:102D10003A46234604F033FA0028E1D10025A8F111
:102D20000108DFE7FF28DBD148E0484651463A4634
:102D3000234604F024FA0028D2D10125A8F1010885
:102D4000D0E7DDE901103A46234604F018FA0028DE
:102D5000C6D10225A8F10108C4E7DDE903103A460F
:102D6000234604F00CFA0028BAD10325A8F1010883
:102D7000B8E7DDE905103A46234604F000FA0028DA
:102D8000AED10425A8F10108ACE7DDE907103A4609
:102D9000234604F0F4F90028A2D10525A8F1010882
:102DA000A0E7DDE909103A46234604F0E8F90028D7
:102DB0007FF496AF0625A8F1010893E7009800215B
:102DC000406805F0070241600160016841EAC20104
:102DD0000160416841F004014160016841F0040173
:102DE0000160016841F0400101600DB0BDE8F08F65
:102DF000000000000000703F000000000000803F65
:102E0000000000000000903F000000000000A03F14
:102E1000000000000000B03F000000000000C03FC4
:102E2000000000000000D03F000000000000E03F74
:102E300080B582B002688C46D2F808E007210622ED
:102E40000523CDF800C0F04702B080BD01684A6894
:102E50004AF22011C0F20701104700004068C1602B
:102E600081688907FCD500BF81680906FCD4C06869
:102E7000C0B27047B0B5044600F0AEFC47F2CC706B
:102E8000C0F600000830206004F10800FFF7B0FC35
:102E900047F2BC70C0F6000000F1080504F1200004
:102EA000A560FFF7A5FC04F138002562FFF7A0FC40
:102EB0002046A563B0BD000010B502680C46D2697B
:102EC0009047204610BD00000168CA6900211047E4
:102ED0002DE9F04F83B015461A461A780093002A60
:102EE000029151D006460098007800284CD047F255
:102EF00084670022C0F600070AE000BF019A00982C
:102F000001320299805C594401F101010291D8B368
:102F10000192D6E91412A0F1200801FB082090F8D4
:102F200002B0BBF1000FE9D04FF0000904E000BF90
:102F300009F10109D945E1D0706C0028F8D0029858
:102F40004FF0000A09EB000405E000BF706C0AF1C5
:102F5000010A8245ECD206F14C0207CA01FB08F1D6
:102F600001EBDA0100FB09100AF007011044C078F8
:102F700057F821100142E9D0306805EB0A02436896
:102F8000304621469847E1E703B0BDE8F08F0000E6
:102F9000704700002DE9F04381B09846089B9A42A3
:102FA0000FDC89460646DC43571E00BF30680137F8
:102FB000C5683046494642463B46A847E0190130BD
:102FC000F4D101B0BDE8F083704700007047000005
:102FD00070470000818670477047000047F2FC711F
:102FE000C0F60001083101600021C0E90B118186A3
:102FF00005220723C0E90E110921C0E9102300BFF3
:1030000001390129FCD801EB810347F2404C05222C
:103010000133C0F6000CC0E91221C0E9143C70472E
:103020002DE9F04F91B00DF1380C8CE80E00219A8B
:103030000DF17809DDE91A1EDDE91CB699E8800377
:103040000D920DF1880C9CE82014DDE92532CDE9C4
:10305000001E04A90895CDF824A0CDF828C0CDE91C
:103060000B32CDE902B681E88003DDE90F23DDE90B
:103070000D710446079700F07DF8206881692046AD
:1030800011B0BDE8F04F084770B50446007958B15B
:103090000025002620692844FFF752FC20790136DC
:1030A000864205F11805F5D30020E06070BD0000F0
:1030B000F0B581B0044600790021A181B8B10025A6
:1030C0000126002706E000BF20790137874205F17D
:1030D00018050CD2206941592844496888470028BE
:1030E000F2D0A08906FA07F10843A081ECE7A08995
:1030F00001B0F0BD70B504460079002808BF70BD6E
:103100000025002606E000BF20790136864205F141
:10311000180508D2E089F040C007F5D0206928449E
:10312000FFF7A8FCF0E770BD2DE9F04104460079F7
:103130000D46E0B100264FF00108002706E000BF71
:1031400020790137874206F1180610D2A08908FAC3
:1031500007F1084029408842F2D02269002902EB99
:1031600006009259126818BF01219047E8E7A5812F
:10317000BDE8F0812DE9F04F91B090469946DDE928
:103180001A6318F101074FF002050391019708BF78
:10319000012519F10107DDE91C21029718BF01354E
:1031A0000136049618BF0135013304461E98059375
:1031B00018BF01350132069218BF01350131079160
:1031C00018BF013501300890DDE91F1018BF013527
:1031D0000131099118BF013501300A90DDE9211054
:1031E00018BF013501310B9118BF013501300C902A
:1031F000DDE9231018BF013501310D9118BF0135EC
:1032000001300E90DDE9251018BF013501310F9115
:1032100018BF01350130109018BF0135EEB22046BD
:103220003146FFF739FB700050FA85F04FEAC00ACB
:10323000504600F091FC834647F2BC70C0F6000097
:10324000002500F1080600BF0BEB0500FFF7D0FAE0
:103250004BF805601835AA45F6D103995846C4F8CD
:1032600010B0FFF7ABFB019820B120694146183040
:10327000FFF7A4FB029820B1206949463030FFF7E0
:103280009DFB049820B120691A994830FFF796FBFE
:10329000059820B120691B996030FFF78FFB0698D5
:1032A00020B120691C997830FFF788FB079820B17E
:1032B00020691D999030FFF781FB089820B12069A3
:1032C0001E99A830FFF77AFB099820B120691F9951
:1032D000C030FFF773FB0A9820B120692099D830DD
:1032E000FFF76CFB0B9820B120692199F030FFF7B4
:1032F00065FB0C9828B12069229900F58470FFF7CE
:103300005DFB0D9828B12069239900F59070FFF7B7
:1033100055FB0E9828B12069249900F59C70FFF7A1
:103320004DFB0F9828B12069259900F5A870FFF78B
:1033300045FB109828B12069269900F5B470FFF775
:103340003DFB207980B100EB4000C0006FF003012D
:10335000002200BF2369A768134418320F4490422B
:1033600001F104017B60F5D10020A08111B0BDE81E
:10337000F08F000070B504460079002808BF70BDCA
:103380000025002606E000BF20790136864205F1BF
:10339000180508D2E089F040C007F5D0206928441C
:1033A000FFF780FBF0E770BD2DE9F04F91B00DF114
:1033B000380C8CE80E00219A0DF17809DDE91A1E0F
:1033C000DDE91CB699E880030D920DF1880C9CE8AC
:1033D0002014DDE92532CDE9001E04A90895CDF8B9
:1033E00024A0CDF828C0CDE90B32CDE902B681E8A2
:1033F0008003DDE90F23DDE90D7104460797FFF730
:10340000B9FE2068C169204611B0BDE8F04F0847F9
:1034100070B50446007958B100250026206928447B
:10342000FFF74AFB20790136864205F11805F5D3EE
:103430004FF6FF70E08170BD80B5FFF747FA47F6A1
:103440001801C0F60001083101600021CFF6FF71BC
:10345000C16080BD0000000080B5FFF7E1F843F6D1
:103460000801C4F202010968C1F382210439032969
:1034700088BF80BDDFE801F00211070C03F0C0FA3D
:103480009FED130B0DE003F0BBFA9FED0D0B08E071
:1034900003F0B6FA9FED080B03E003F0B1FA9FEDDD
:1034A0000A0B53EC102B03F037FB03F065FA4000D6
:1034B00080BD00BF00BF00BF000000000000B03FA3
:1034C000000000000000C03F000000000000D03FEE
:1034D000000000000000E03F80B5FFF7A1F843F6D0
:1034E0000801C4F202010968C1F342310439032919
:1034F00088BF80BDDFE801F00211070C03F080FAFD
:103500009FED130B0DE003F07BFA9FED0D0B08E030
:1035100003F076FA9FED080B03E003F071FA9FEDDC
:103520000A0B53EC102B03F0F7FA03F025FA4000D6
:1035300080BD00BF00BF00BF000000000000B03F22
:10354000000000000000C03F000000000000D03F6D
:10355000000000000000E03F10B50446481E0A28A5
:10356000217100F282800FF20601DFE800F00615FB
:10357000202D3C7E7E7E4E5D6C0040F20040C4F209
:10358000000000F57C40206043F64000C4F20200D9
:10359000416841F0010164E04FF08040206043F653
:1035A0004000C4F20200016841F0010129E040F24C
:1035B0000040C4F20000206043F64000C4F2020064
:1035C000016841F002011CE040F20040C4F200003A
:1035D00000F58060206043F64000C4F202000168FC
:1035E00041F004010DE040F20040C4F2000000F59B
:1035F0000060206043F64000C4F20200016841F020
:1036000008010160FFF728FF2EE040F20040C4F2FD
:10361000000000F59E30206043F64000C4F2020036
:10362000416841F480311CE040F20040C4F20000E7
:1036300000F5A030206043F64000C4F2020041686B
:1036400041F400310DE040F20040C4F2000000F50A
:10365000A230206043F64000C4F20200416841F409
:1036600080214160FFF738FFA06020684FF0FF31F4
:103670004162016841F00101016010BD0279023A26
:10368000092A88BF7047DFE802F005121F2C646426
:103690006439465340F24022C2F2000211604EF2F9
:1036A0000011CEF200014FF080520A604CE040F26F
:1036B0004422C2F2000211604EF20011CEF200016B
:1036C0004FF000520A603FE040F24822C2F200028E
:1036D00011604EF20011CEF200014FF080420A60FC
:1036E00032E040F24C22C2F2000211604EF20011B0
:1036F000CEF200014FF480224A6025E040F25022D1
:10370000C2F2000211604EF20011CEF200014FF041
:1037100080720A6018E040F23822C2F200021160A2
:103720004EF20011CEF200014FF000720A600BE081
:1037300040F23C22C2F2000211604EF20011CEF2C1
:1037400000014FF080620A600068C16841F0010129
:10375000C160704710B52DED028B04468068B0EE55
:10376000408AF0EE608A03F04BF953EC182B03F01B
:10377000D3F902F055FE01EE100AB1EEC10AB4EE23
:10378000400AF1EE10FA14D6BFEE001A30EE010A2C
:103790002068BCEEC00A80ED0B0A80ED0A0A4FF0EB
:1037A000FF31B0EE480AF0EE680A4162BDEC028BD0
:1037B00010BDB0EE410A00F072FFE5E7704700006F
:1037C000704700007047000070470000704700001D
:1037D000704700007047000047F64001C0F6000146
:1037E000083101607047000010B50446C4E90012BA
:1037F000FDF7B8FE606801680A684FF6FF719047F0
:10380000206801680A684FF6FF71BDE81040104754
:103810002DE9F04104464068FFF73CF880B30026EC
:103820004FF0FF38002505E060680136FFF732F8F9
:10383000864226D2606808FA06F1026801391268E9
:1038400089B290470520FEF7A7FF2068FFF722F80E
:103850000028E9D0002705E020680137FFF71AF8B3
:103860008742E1D2206801680A69F9B290470028CE
:10387000F2D12068FFF70EF806FB0070451CEBE75D
:103880000025606801680A684FF6FF71904720685C
:1038900001680A684FF6FF719047E8B2BDE8F08111
:1038A00010B504462046FFF7B3FF0028FAD010BD3C
:1038B000704700002DE9F04381B0994615460F4648
:1038C0000446FDF74FFE04F15C0630463946FFF72B
:1038D00001F930460121FFF7F5F804F1740840467C
:1038E0002946FFF7F7F840460121FFF7EBF804F10E
:1038F0008C0528464946FFF7EDF828460121FFF7D9
:10390000E1F80A20FEF720FF30460021FFF7DAF841
:103910000A20FEF719FF30460121FFF7D3F82846A9
:103920000021FFF7CFF840460021FFF7CBF80A202F
:10393000FEF70AFFA06D0168CA6921219047A06DBA
:103940000168CA6912219047A06D0168CA69FF2108
:103950009047A06D0168CA6904219047A06D016875
:10396000CA6920219047A06D0168CA690C2190475F
:10397000A06D0168CA6940219047A06D0168CA69BD
:10398000802190470A20FEF7DFFE40460121FFF725
:1039900099F804F1A4004FF4FC71FCF730FE2046C6
:1039A0000121FFF717FB20680169204601B0BDE83F
:1039B000F0430847012100220923FFF77BBF0000E5
:1039C00080B5A4304FF4FC71FCF719FE80BD0000F7
:1039D000D31702EB5373C3F3C70C03F0F803D21AE7
:1039E00047F20473D2B2C0F6000313F82220542326
:1039F0001CFB0311014491F8A43090F834C023EA71
:103A00000200BCF1010F08BF43EA020081F8A400E4
:103A1000704700009A42C8BF7047F0B581B00C46AD
:103A20000546DF43561E00BF286801364368284616
:103A3000214632469847B8190130F5D101B0BDE8AA
:103A4000F04070479142C8BF7047F0B581B01C4646
:103A50000546D7434E1E00BF2868013643682846F6
:103A6000314622469847B8190130F5D101B0BDE87A
:103A7000F0407047816570472DE9F04100F18C08F6
:103A8000054640460021FFF71DF805F17404204665
:103A90000021FFF717F8A86D0168CA694021904717
:103AA000A86D0168CA698021904720460121FFF76F
:103AB00009F840460121FFF705F80A20FEF744FE09
:103AC00020460021FEF7FEFF05F1A3074FF4FC7628
:103AD000A86D17F8011F0268D2699047013EF7D11F
:103AE00040460021FEF7EEFFA86D0168CA6900217B
:103AF000904720460121BDE8F041FEF7E3BF0000FA
:103B0000B0B50446FFF76AFA47F67000C0F6000049
:103B10000830206004F15C00FEF76AFE47F2BC70DA
:103B2000C0F6000000F1080504F17400E565FEF739
:103B30005FFE04F18C006567FEF75AFE0021204607
:103B4000C4F88C50A165B0BD40F2A850C2F200008C
:103B500000687047FCF722BEAFF3008010B5044642
:103B6000012898BF012400BF2046FCF7DCFD002897
:103B700018BF10BDFFF7E8FF08B18047F4E7002049
:103B800010BD000010B504460846114601F024FBA4
:103B9000C4E9000110BD000040F20500C2F20000BF
:103BA000007828B180B502F0AFFABDE8804000E0AF
:103BB000002047F6CC1200EB4001C2F2000202EBFB
:103BC000411240F21411C2F20001002818BFA2F104
:103BD000600108467047000040F20501C2F2000192
:103BE0000978002908BF7047006845F6811CC0F6B7
:103BF000000C4FF6FF7100DF7047000046F2447280
:103C0000C2F200021168082901D300BFFEE780B5A7
:103C10004B1C136047F64C12C2F2000202EB01117A
:103C20000160084601F038FE012080BD40F2050128
:103C3000C2F200010978002908BF7047006845F604
:103C4000A90CC0F6000C00DF7047000001F064FA18
:103C500047F6B000C0F60000002101F0C9FA01F0FB
:103C60006DFA00BFFEE7000096B001F055FA40F291
:103C7000345444F24026C2F20004C0F20F0620463B
:103C80000721062205230096FEF75EFF40F2642519
:103C9000C2F2000528462146FFF7ECFE2846FFF752
:103CA00089FE2846FFF78CFE28460121FFF792F98E
:103CB00040F28454C2F2000420460221FFF74CFC7B
:103CC0009FED430B2046FFF745FD41F29151C0F6B1
:103CD00000012046FFF7D2FC20460121FFF73CFC03
:103CE0009FED3D0B2046FFF735FD42F20151C0F636
:103CF00000012046FFF7C2FC40F20050C2F2000073
:103D00002921FEF7FFFD36A0C268D0E90110CDE9F8
:103D100014023348CDE9120135A0C268D0E9011080
:103D2000CDE910023248CDE90E0112A8002101F0C0
:103D30005FFA40F29051C2F2000108600EA8002123
:103D400001F056FA40F29451C2F2000140F27414AC
:103D500008604FF0FF361320C2F20004CDE90006E0
:103D60002046102111220A23CDE90866CDE90A6612
:103D70000C96CDE90266CDE9046606960796FFF734
:103D80004FF940F2B8150820C2F20005CDE900064F
:103D90002846152114221A23CDE90866CDE90A66C2
:103DA0000C96CDE90266CDE9046606960796FFF704
:103DB000FBFA2846FFF79EF940F29850C2F2000045
:103DC00029462246FFF710FD01F0B8F9FEF726FC60
:103DD000613255302AA9633F000000000000F03F27
:103DE000CD1C0008000000000100000000000000E1
:103DF000F91C0008000000000100000000000000A5
:103E0000FEE70000FEE700000000000003B4019898
:103E10004100009850EAC12018BF04204A0D18BF85
:103E200040F0010040F2FF72B2EB515F08BF40F07A
:103E30000200012808BF052002B070470000000002
:103E400010B52F499FED2C1B2DED020B84B005986A
:103E500020F000408842D8BF9DED040B2DDD29499C
:103E6000884209D1049840B94FF00100FCF7A5FC45
:103E700001F03EF806B010BD05DB9DED040B01F02E
:103E80002BF806B010BD68469DED040B00F024FC35
:103E900010F0030004BF9DED021B9DED000B0CD044
:103EA00001280ED09DED021B9DED000B022817D0BE
:103EB000012000F061FF06B010BD00F029FE06B041
:103EC00010BD9DED021B9DED000B012000F054FF85
:103ED00051EC100B02F098FA06B041EC100B10BD3B
:103EE00000F016FE51EC100B02F08EFA06B041EC19
:103EF000100B10BD000000000000000000000000DA
:103F0000FB21E93F0000F07F70B52DED020B2DED98
:103F10000A8B82B00D98C40F20F00045AE48854250
:103F200048D3AE48854219D30C99C5F31300084312
:103F300009D09DED0C0B02B0BDEC0A8B02B0BDE8C0
:103F4000704000F0C9BF002C14BF9FEDA50B9DED84
:103F50000C0B02B0BDEC0A8B02B070BD9FEDA20B42
:103F600053EC102B9DED0C0B51EC100B02F0D2FE1C
:103F70000AD20220FCF721FC02B0BDEC0A8B02B091
:103F8000BDE8704000F0C4BF9FED990B53EC102BBF
:103F90009DED0C0B51EC100B02F082FD0AD20220B9
:103FA000FCF70BFC02B0BDEC0A8B02B0BDE8704020
:103FB00000F0BEBF90489FED92BBA8425CD29248F1
:103FC000854219D29148784400EBC40090ED000B73
:103FD00053EC102B9DED0C0B51EC100B02F0A8FFD5
:103FE00041EC1A0B8A48784400EBC40090ED009B2A
:103FF000C4F10100041B36E09FED870B53EC102B3E
:104000009DED0C0B51EC100B02F086FD41EC100BFA
:104010008348784400EBC40090ED001B51EC100B7A
:1040200053EC112B02F02EFA02F076FC044602F05B
:10403000D0FC41EC180B9FED7C0B53EC102B02F0E5
:104040006BFD9DED0C1B53EC112B02F099FE41EC26
:104050001A0B9FED770B51EC180B53EC102B02F061
:104060005BFD41EC190B51EC1A0B53EC192B02F0D0
:104070005FFFCDE90C011BE06F48854217D29FED31
:10408000700B53EC102B9DED0C0B51EC100B02F050
:10409000F9F953EC1B2B02F03DFE08D29DED0C0B01
:1040A00053EC1B2B51EC100B02F0ECF96EE00024EA
:1040B0009DED0C0B53EC102B51EC100B02F02CFD72
:1040C00041EC180B60480521B0EE480AF0EE680A92
:1040D000784400F0D5FD53EC182B51EC100B02F096
:1040E0001BFD9DED0C1B53EC112B02F049FE41EC26
:1040F000180B9FED570B5CB353EC182B51EC100BC6
:1041000002F016FF9DED0C0B41EC1C0B53EC182B31
:1041100051EC100B02F000FD53EC1C2B02F066FA80
:1041200053EC192B02F02CFE53EC1A2B02F000FF7B
:1041300053EC1B2B02F024FECDE900016FF47F70DD
:10414000844226DB01EB045001909DED000B00E75B
:1041500053EC102B51EC180B02F0EAFE9DED0C0B0A
:1041600041EC190B53EC182B51EC100B02F0D4FC62
:1041700053EC192B02F03AFA9DED0C1B53EC112B6A
:1041800002F0D6FE53EC1B2B02F0FAFD41EC100BB3
:10419000DFE608464FF07A5101EB04519FED2E0BFC
:1041A000084453EC102B01909DED000B51EC100BCB
:1041B00002F0B2FC0D4645EC100B044651EC100B1E
:1041C000FFF724FE042808BF00F0B2FE45EC104BB8
:1041D000BFE6000000000000422E86400000F07F95
:1041E0000000000000000000EF39FAFE422E864079
:1041F00051302DD5104987C0422ED63F0000000017
:10420000000000000000F03FB2A2F03FAE3200001C
:104210009E32000000000000FE822B654715F73F2C
:1042200052320000000000000000E0FE422EE63F97
:10423000763C7935EF39EA3D0000303E0000000061
:104240009C7500883CE4377EC4310000000000000B
:1042500000000000000000400000000000007001AD
:1042600070B5D94B00242DED020B2DED108BDDE93F
:104270001010984205DA20F000429A4201D809D184
:1042800041B19DED100BBDEC108B02B0BDE870404C
:1042900000F022BEB0F5801F26DA11430BD00028B3
:1042A00013DA0120FCF789FABDEC108B02B0BDE8EF
:1042B000704000F01DBE0220FCF77FFA00F0F4FD14
:1042C00051EC100B02F0A0F89EE06FF035049FED6A
:1042D000C00B53EC102B9DED100B51EC100B02F0AA
:1042E0001BFCCDE91001084604EB2051C0F3130478
:1042F000B948A1F2FF31204400F4801080F07F62C1
:1043000082F04052224301EB20559FEDB50B1192F4
:1043100053EC102B9DED100B51EC100B02F008FE2E
:1043200041EC180BA01CC0F313009FEDAFDB9FED19
:10433000B0EBB14E7E4403286CD296ED000B51ECED
:10434000180B53EC102B02F0ABFA1DD1002D01BF5E
:1043500096ED000BBDEC108B02B070BD284602F04C
:1043600038FB41EC180B53EC1D2B02F0D5FB41EC54
:10437000190B53EC1E2B51EC180B02F0CDFB53EC38
:10438000192B02F07FF83FE09FED9D0B51EC180BCD
:1043900053EC102B02F0C0FB9FED9B1B53EC112B39
:1043A00002F0EEFC41EC190B53EC182B51EC180BFE
:1043B00002F0B2FB53EC192B02F0AEFB41EC190BEF
:1043C000002D04BF53EC192B51EC180B1AD02846C2
:1043D00002F0FFFA41EC1A0B53EC1D2B02F09CFB90
:1043E00053EC192B02F0CCFC53EC182B02F0A0FD7F
:1043F00041EC180B53EC1E2B51EC1A0B02F08CFB0A
:1044000053EC182B02F094FDBDEC108B02B041EC84
:10441000100B70BD9FED7E0B51EC180B53EC102B65
:1044200002F030F841EC100B51EC180B53EC102B50
:1044300002F0DCF841EC190B284602F0CAFA41EC14
:104440001B0B53EC192B51EC190B02F065FB41ECE3
:104450001A0B714853EC1A2B261851EC1A0B02F068
:104460005BFB41EC1F0B6D48C4F1510404F5D724EC
:10447000B0EE4F0AF0EE6F0A0321784400F000FC22
:1044800053EC1F2B51EC100B02F046FB41EC1C0BC4
:104490006348B0EE4F0AF0EE6F0A0421784400F052
:1044A000EFFB53EC1A2B51EC100B02F035FB3443AD
:1044B00053EC1C2B01F0E6FF41EC1C0B002C4CDDF7
:1044C0009FED510B51EC180B53EC102B02F024FB19
:1044D00053EC182B02F020FB41EC1A0B55B353ECB4
:1044E0001D2B51EC1B0B02F017FB41EC1D0B53EC89
:1044F0001C2B51EC1A0B01F0C5FF53EC192B02F0E9
:104500000BFB53EC1D2B01F0BDFF53EC1A2B02F0FB
:1045100037FC53EC182B02F00BFD41EC180B53EC5D
:104520001E2B51EC1B0B02F0F7FA53EC182B02F088
:10453000FFFC69E753EC1C2B51EC1A0B01F0A2FFB6
:1045400053EC192B02F0E8FA53EC1A2B02F018FC8A
:1045500053EC182B02F014FC56E735B353EC1D2B2B
:1045600051EC1B0B02F0D8FA41EC1A0B53EC1C2B4C
:1045700051EC180B02F0DCFC53EC192B02F0CCFAD6
:1045800053EC1A2B02F0D4FC53EC182B02F0D0FCA5
:1045900041EC180B53EC1E2B51EC1B0B02F0BCFA38
:1045A00053EC182B02F0C4FC2EE753EC1C2B51ECFF
:1045B000180B02F0BDFC53EC192B02F0ADFA53ECD2
:1045C000182B02F0DDFB1FE70000F07F0000000069
:1045D0000000000000005043645F0900000000007C
:1045E000000000000000F03F763C7935EF39EA3DED
:1045F0000000E0FE422EE63FF02F00000000000029
:10460000555555555555D53F000000000000E03F79
:10461000000000000000004086EBF9FF422E000081
:10462000382E000000B52DED048BB0EE409AF0EE70
:10463000609A83B051EC190B02F0AEFB41EC180B01
:1046400018EE100A18EE901A8DED008B002818BF96
:104650000120084320F00040C0F17F6000F1E040FD
:10466000C00F14D019EE101A19EE900A8DED009BB0
:10467000002918BF0121084320F00040C0F17F60ED
:1046800000F1E040C00F04BF0120FCF796F8B0EE47
:10469000480A03B0F0EE680ABDEC048B00BD10B50B
:1046A0002DED028BB1EEC08A18EE100A20F000400A
:1046B000C0F1FF40C00F0AD010EE100A20F00040F9
:1046C000C0F1FF40C00F04BF0120FCF776F8B0EE48
:1046D000480ABDEC028B10BD2DE9F14F04462DEDCB
:1046E000020B2DED088B8AB09FEDE70B80ED020BDE
:1046F000139EE74826F0004585420ADC9DED120B2B
:10470000002084ED000B0AB0BDEC088B03B0BDE8BF
:10471000F08FE0489FEDE0AB9FEDE1BBA84247DDA5
:10472000E14F9FEDE39B9FEDE48B9DED120B53EC6E
:104730001A2B51EC100B002E1CDD02F0F9FB41ECA2
:10474000100BBD4208D053EC1B2B51EC100B02F0A8
:10475000EFFBC4E900010BE053EC192B51EC100BFB
:1047600002F0E6FB53EC182B02F0E2FBC4E9000177
:104770000120C8E701F086FE41EC100BBD4208D0D5
:1047800053EC1B2B51EC100B01F07CFEC4E9000133
:104790000BE053EC192B51EC100B01F073FE53ECB2
:1047A000182B01F06FFEC4E900014FF0FF30AAE7BB
:1047B000C348A84279DB9DED120B51EC100B00F0C1
:1047C0001BFC41EC180B9FEDC00B53EC102B02F0BF
:1047D000A3F99FEDBF1B53EC112B01F053FE02F028
:1047E0009BF8074602F0F5F841EC190B53EC1A2B35
:1047F00002F092F953EC182B02F0C2FA41EC180BBC
:1048000053EC1B2B51EC190B02F086F9DFF8C8A210
:1048100041EC100B4FEA15580125FA4453EC102BCC
:1048200051EC180B02F084FB032DC4E900013DD0CC
:10483000C1F30A5005EB4511A8EB00001139814284
:1048400034DA0AEB051BB0EE48AA9BED000BF0EE44
:1048500068AA53EC102B51EC190B02F05DF941ECF6
:104860001B0B51EC1A0B53EC1B2B02F061FB41ECC0
:10487000180B51EC1A0B53EC182B02F059FB53ECAC
:104880001B2B02F055FB9BED020B41EC1A0B53EC7A
:10489000102B51EC190B02F03FF953EC1A2B02F0DC
:1048A00047FB41EC100B6D1CB8E70EE0002EA8BFD3
:1048B0003846BFF628AF94ED000B51EC100B01F019
:1048C000A3FDC4E9000178421DE7C6F3130040F4DC
:1048D000801EC6F30A50A0F2F530471100F01F0504
:1048E000C5F12000DDF848B0089000200690079040
:1048F0000520EC467949002D07EB0002794408BFFA
:1049000051F8221009D051F8223001EB8201AB405E
:104910004A68089922FA01F11943A1FB0E26A1FB6E
:104920000B131A449A4234BF0123002303EB0608F9
:104930000CEB8003D3E901A60E448E4234BF012163
:10494000002192448A4411B1924502D903E0924574
:1049500001D2012100E00021C3E901A641444CF845
:104960002010011EA0F10100C4DC029800F10050EB
:10497000850F0298DDE903678000DDF8148002F0FE
:1049800028F841EC1A0B304602F03AF89FED541B20
:1049900053EC112B02F0C0F841EC1B0B384602F02F
:1049A0002FF89FED511B53EC112B02F0B5F841ECA1
:1049B000180B404602F024F89FED4D1B53EC112BD1
:1049C00002F0AAF841EC190B51EC180B53EC192B1F
:1049D00001F058FD53EC1B2B01F054FD53EC1A2B46
:1049E00001F050FDCDE90801002008909DED080B75
:1049F00053EC1A2B51EC100B02F09AFA53EC1B2BD0
:104A000002F096FA53EC182B02F092FA53EC192BA1
:104A100002F0B6F99FED381B53EC112B02F07CF835
:104A20009FED370B41EC180B53EC102B9DED080B51
:104A300051EC100B02F070F853EC182B01F022FD32
:104A40009FED310B41EC180B53EC102B9DED080B37
:104A500051EC100B02F060F853EC182B01F012FD32
:104A600041EC100B139810F0004F06D06D4251EC42
:104A7000100B01F0C9FC41EC100B284684ED000B33
:104A800041E60000000000000000000000000000FF
:104A9000FB21E93F7CD9024000004054FB21F93F53
:104AA0003163621A61B4D03DFB21F93F0000000080
:104AB0000000601A61B4D03D7370032E8A19A33BC5
:104AC000FB2139410000000083C8C96D305FE43F1D
:104AD000000000000000E03F122B0000602A0000F0
:104AE000000000000000103E000000000000103C2C
:104AF000000000000000103A182D4454FB21F93D3D
:104B00003326A611460B113C00000054FB21F93D51
:104B100010B52DED040B2DED088B82B0B0EE419A4F
:104B2000F0EE619A0B9820F000449FED4BABB4F18E
:104B3000795F11DA9DED0A0B51EC100B01F0ECFEE0
:104B4000002801BFB0EE4A0AF0EE6A0A02B0BDECDE
:104B5000088B04BF04B010BD9DED0A0B53EC102B65
:104B600051EC100B01F0D8FF41EC180B3C4806212A
:104B7000B0EE480AF0EE680A784400F081F853EC91
:104B8000182B51EC100B01F0C7FF9DED0A0B41EC07
:104B90001B0B53EC192B51EC100B01F0BDFF41EC3A
:104BA000190B53EC1B2B51EC180B01F0B5FF53EC18
:104BB000192B02F0BDF99FED2C0B41EC190B53ECB6
:104BC000102B51EC180B01F0A7FF41EC100B2848FB
:104BD000844210DA53EC192B51EC100B02F0A8F9B7
:104BE00053EC1A2B02F0CCF841EC100B02B0BDECE8
:104BF000088B04B010BD1F48A042BCBF9FED1E1B18
:104C00008DED001B06DBA4F5001001900020009044
:104C10009DED001B51EC100B53EC112B02F088F9A9
:104C20009DED000B41EC180B53EC102B51EC1A0BC3
:104C300002F07EF941EC1A0B53EC192B51EC180BD6
:104C400002F076F953EC1A2B02F09AF841EC100BB3
:104C5000CCE7000000000000000000000000F03F72
:104C60007C27000000000000000000000000E03F82
:104C70003333D33F0000E93F000000000000D23F83
:104C800070B504462DED028B4D1E00EBC500B0EE55
:104C9000408AF0EE608A90ED000B35F0060017D0E8
:104CA00053EC182B51EC100B01F036FF41EC100BBC
:104CB0006D1E04EBC50090ED001B51EC100B53EC86
:104CC000112B01F0DFFB41EC100B35F00600E7D1B2
:104CD000022D36D0042D1CD0062D1CBFBDEC028B3E
:104CE00070BD53EC182B51EC100B01F015FF94ED37
:104CF0000A1B53EC112B01F0C5FB53EC182B01F0F0
:104D00000BFF94ED081B53EC112B01F0BBFB41ECA6
:104D1000100B53EC182B51EC100B01F0FDFE94ED31
:104D2000061B53EC112B01F0ADFB53EC182B01F0DB
:104D3000F3FE94ED040B53EC102B01F0A3FB41ECBC
:104D4000100B53EC182B51EC100B01F0E5FE94ED19
:104D5000021B53EC112B01F095FB53EC182B01F0C7
:104D6000DBFE94ED001B53EC112B01F08BFBBDEC33
:104D7000028B41EC100B70BD31B504462DED040BD8
:104D80002DED0A8BB0EE41BAF0EE61BA0B989DEDB5
:104D90000A0B20F00040B0F1795F0DDA51EC100BF6
:104DA000FFF734F8042808BF00F0C2F89DED0A0BA5
:104DB000BDEC0A8B05B030BD53EC102B51EC100B41
:104DC00001F0AAFE41EC180B9DED0A0B53EC182BD9
:104DD00051EC100B01F0A0FE41EC190B2C48B0EE89
:104DE000480AF0EE680A05217844FFF749FF9FED75
:104DF0002ACBB0EE40AAF0EE60AA9CB353EC1C2B79
:104E000051EC190B01F088FE41EC1C0B53EC1A2BF2
:104E100051EC190B01F080FE9FED210B41EC190BB9
:104E200053EC102B51EC1B0B01F076FE53EC192BBD
:104E300002F07EF853EC182B01F06EFE53EC1B2BA6
:104E400002F076F853EC1C2B02F072F89DED0A1B71
:104E500053EC112B01F094FFBDEC0A8B05B041EC33
:104E6000100B30BDFFE753EC1A2B51EC180B01F07F
:104E700053FE53EC1C2B01F005FB53EC192B01F0F6
:104E80004BFE9DED0A1B53EC112B01F0FBFAE3E7FF
:104E90001426000000000000495555555555C5BF62
:104EA000000000000000E03F9FED070B10B553EC41
:104EB000102B9FED070B51EC100B01F097FB41EC11
:104EC000100B10BD000000000000000000000000FA
:104ED000000000000000F03F10B553EC102B51EC27
:104EE000100B01F0CFFA41EC100B10BD00000000D8
:104EF0009FED050B10B553EC102B51EC100B01F08E
:104F000075FB41EC100B10BD00000000000000001C
:104F10009FED050B10B553EC102B51EC100B01F06D
:104F2000FBFD41EC100B10BD000000000000007004
:104F30009FED050B10B553EC102B51EC100B01F04D
:104F4000EBFD41EC100B10BD000000000000001054
:104F500010B5002A06DA22F00042D21D22F0070323
:104F6000102203E0D21C22F003030C2213B19C1880
:104F70008C4201D9012010BD024401448360C0E984
:104F80000021C91AD018884202D810600246F9E7F9
:104F90000020106010BD000008480068C0010BD55B
:104FA00007480068C00707D0054880380068002817
:104FB00002DA04490120087070470000FCED00E0AF
:104FC000800E00E0280000204FF06042D36F002BDD
:104FD000FCD0036BD367D36F002BFCD0C07840EAC2
:104FE0000120A2F87C0070474FF06041CA6F002A90
:104FF000FCD081F87C00704782B0CDE9000121F03F
:10500000004001909DED000B02B051EC100B704779
:105010000EB5802200B109B110460AE001780129DD
:10502000FAD101A900F046F8042801D0002000E0E0
:105030001020DDE9011203B000BD70B50D4604007B
:1050400003D012B92078012801D0802070BD2046FD
:1050500000F01CFB28B12946204600F056F800203D
:1050600070BD812070BD70B50C4600F0E9FE4FF0B8
:10507000004108B1220C01D0084670BD058BC178F3
:10508000A0B200F003F8284670BD00000A460146B1
:10509000074810B500EB820050F8040C002805D03A
:1050A00000F0F8FCBDE8104000F0E4BC10BD0000CA
:1050B0005067002010B504468089002824D06089FC
:1050C00004EB800000690860606840B160780228E5
:1050D00005D10021204600F0DDFC00F0CBFC04F1FE
:1050E0000C0000BFD0E85F1F491E8AB2C0E8512FF4
:1050F0000029F7D16089401C80B26081E189884233
:1051000001D100206081042010BD10B500F0C2FC68
:10511000BDE8104000F0AEBCEFF3058008B182207E
:105120007047EFF31480C00703D0DFF80CC000DF36
:10513000704700F0F1BF00001961000888B0EFF37C
:10514000058010B1822008B07047EFF3148010F092
:105150000301134806D001291BD0022911D00329CD
:1051600019D113E008A981F309880078C0070BD092
:105170005FF0020080F31488BFF34F8FBFF36F8F8F
:1051800009E00078C00706D10320F3E70078C007E4
:1051900001D0FF20D7E7DFF80CC000DFD3E7000025
:1051A0009978000889610008EFF305820AB1FFF7DA
:1051B0002FBFDFF808C000DF70470000F56100086E
:1051C000EFF305820AB1FFF74EBFDFF808C000DF3A
:1051D000704700002F620008EFF305830BB18220B7
:1051E0007047DFF808C000DF704700005562000814
:1051F000EFF305820AB100207047EFF31482D20763
:1052000002D1044A52781AB1DFF80CC000DF7047AF
:1052100001F04AB804000020A9620008DFF80CC0C1
:1052200000DFDFF80CC000DFFEE7000015630008B8
:1052300031630008DFF804C000DF704769630008CD
:10524000094C4FF0FF3529462068FFF7ADFF0246B5
:105250000846102AF7D1FFF7EDFF0028F3D00246E9
:1052600008469047EFE700004867002007480168BC
:105270004FF0E02041610021816107210161044874
:10528000016841F07F41016040177047D478000801
:1052900020ED00E0704750E8001F31B10B6840E896
:1052A0000032002AF7D108467047BFF32F8FFAE784
:1052B00010B568B161B10B3121F003020168446897
:1052C0000B1A1B1B934205D2084609680029F5D129
:1052D000002010BD210007D021180368C1E9003269
:1052E000016001F1080010BD4260083010BD0000EF
:1052F00070B50D46002812D04FF6FF71084C884259
:1053000004D222680146104600F0F2FB2068457086
:10531000044800F025F9BDE8704000F0BBBC70BD4A
:105320000C000020E40000200F4810B50D49426831
:105330000E480B680068934204D00A60CB88421E76
:105340001A448A808A8880B282420AD1002008608A
:10535000054800F005F90146BDE81040024800F09C
:10536000EBBB10BD20000020E40000201C0000204A
:1053700070B5194DE86800282CD0A88A401EA88274
:10538000002621E0A06838B161684160606810B112
:10539000A16881606660A6600F482146183800F059
:1053A000CBFBA08AA8826078042804D10B49E08A4C
:1053B00009880844A08201206070E068E860E06825
:1053C00008B10561E6602661A88A002802D1EC6870
:1053D000002CD7D170BD0000FC0000201C00002074
:1053E00070B504000FD00D4DA17801262868827891
:1053F00091420CD900F0BCFB286846702046BDE8FD
:10540000704000F047BC064800F0AAF8F7E7667065
:105410002146BDE87040024800F08EBB0C00002021
:10542000E400002010B50446008B08432083627816
:10543000618B062A18D0052A19D1084217D001EA33
:105440000002628388432083204600F0CBFB0120CA
:105450006070628B0821204600F0BCFB2146BDE84D
:105460001040034800F068BB31EA0002EAD010BDEA
:10547000E40000200246154810B500EB810050F80A
:10548000044C002C21D0208B104320836278618B48
:10549000062A17D0052A18D1084216D001EA0002C0
:1054A000628388432083204600F09CFB01206070CB
:1054B000628B0821204600F08DFB2046BDE810409D
:1054C000FFF78EBF31EA0002EBD010BD506700201D
:1054D00070B503460C480D460468208B42B133EA90
:1054E000000101D0062109E098432083022070BD0D
:1054F00010EA030101D06183F6E7052163832846A2
:10550000FFF7F6FE012070BD0C000020814202D39F
:1055100042688A4201D80120704702680A60BFF3DE
:105520005F8F50E8003F0A689A42F6D140E80012C7
:10553000002AF2D10020704768B161B10022083919
:1055400002E00246006830B18842FAD12AB1006810
:105550001060002070470120704700214160F8E78B
:105560000146406842684A600B780022022B05D051
:10557000012B03D0032B01D04260704743680BB16D
:105580009960426082607047810700D000207047B8
:1055900070B5044600201546207001226270A1708B
:1055A00084F824106060A060E06020612062A08226
:1055B000E0822083608384F82500E08C18B90548D8
:1055C000FFF769FEE06229462046BDE8704000F022
:1055D0001DB80000B805002008B1082901D201203B
:1055E00070470144091F002201600A6042601046B2
:1055F0007047000003480021016003490988C18009
:105600007047000020000020A478000870B5C28C0C
:105610001C4D930802D12A88C2F38D03C26A02EBA3
:105620008302540700D5121F4FF0807442E9021420
:1056300000242646B2F1400242F82460641C0E2C7D
:10564000FAD3C4691462826201632968C90014D55F
:10565000112B12D94FF0FF31103B11EB53014FF0DA
:10566000CC3305D042F8043C42F8083D491EF9D13C
:10567000C16A121F8A4200D91360C06A02490160E0
:1056800070BD0000AC780008A52E5AE2C18980895F
:10569000081A704701220270002242708270426034
:1056A00002814281103982818908C18170470000DE
:1056B0002DE9F041044640680E464FF0000804F121
:1056C0000C05E8B36078012701283ED0022813D0EA
:1056D00003285CD10846FFF7DEFD050057D02046C1
:1056E000FFF73EFF0446294600F06EFA6770204639
:1056F00000F078FA214621E02046FFF731FF064608
:10570000002100F061FA2189F06904EB8101086150
:10571000D5E85F0F401C81B2C5E8501F0028F7D1C3
:105720002089401C80B22081E189884201D1A4F8FF
:1057300008807770304600F055FA3146174800E08F
:105740000CE0BDE8F04100F0F7B92046FFF708FF94
:1057500004463246102100F03DFAC7E7A089E189EE
:10576000884216D2208904EB80000661D5E85F0FDD
:10577000401C81B2C5E8501F0028F7D12089401C89
:1057800080B22081E189884201D1A4F80880BDE877
:10579000F081BDE8F0410320FEF732BBE4000020B9
:1057A00070B50446808915460026C0B3608904EBB5
:1057B0008000006908606089401C80B26081E189D6
:1057C000884200D16681606810B1607802280BD0F1
:1057D00014F10C04D4E85F0F401E81B2C4E8501FDE
:1057E0000028F7D1002070BD2046FFF7B9FE05461E
:1057F000002100F0E9F92189E86904EB81010861E1
:105800002089401C80B22081E189884200D1268114
:10581000284600F0E7F92846FFF7E2FDE2E7FFE758
:105820003DB10B48626801682AB1204600F084F956
:1058300008E0012070BD616001684E60006884600E
:105840000120607008212846FFF752FDF1E70000B3
:105850000C000020002814D0411C13D00C4A4FF635
:10586000FE7190420CD800EB4002C2EBC012094816
:10587000036803EBC202521EB2FBF3F0884204D964
:10588000084670474FF6FF70704780B270470000BF
:1058900000093D0094780008032101700021418037
:1058A00041608160C16070472DE9F0410446408845
:1058B00020B1314DA1682A68914202D0FF20BDE895
:1058C000F081401E0004000C608053D12968086AF2
:1058D000A04209D1E068086208E0C268A24202D191
:1058E000E268C26002E010460028F6D191F8240078
:1058F0000A6A06E053681BB19B78834200D91846B8
:10590000D268002AF6D18870DFF8708061680126BD
:1059100011B32046FFF724FE0746002100F054F99A
:10592000384600F05FF96680A760386AE0603C6244
:105930002968D8F804008A788078824201D33846F2
:1059400016E00E4800F0F8F839460C4800F0F4F87C
:10595000286846707E700AE0D8F804108A782968B2
:10596000824207D9054800F0E7F828684670002011
:10597000FFF736FD0020A2E70C000020E400002025
:1059800070B51C4D0E4604464188286861B1A26876
:10599000824210D1A1F57F40FF3803D0491C6180BD
:1059A000002070BDFF2070BDA060016AE16004624C
:1059B00001206080F4E776B191788078814203D24B
:1059C0009070A06800F0DEF8606830B12046296869
:1059D00000F0B2F808E0012070BD28686060296816
:1059E000002048602868846009213046FFF780FC69
:1059F000F1E700000C00002070B51B48012102688F
:105A00005170006800F0B4F8184D6C7818E000BFD1
:105A100005EBC40148680278EAB1012A20D000F001
:105A20000DF9E878641C844200D100240F48801CE2
:105A3000D0E84F1F491EC9B2C0E8421F002AF7D163
:105A4000A8780028E4D16C700948FFF789FDBDE80B
:105A5000704000F01FB9098989B2FFF7E3FCE0E765
:105A60008968FFF725FEDCE70C0000206C6700204A
:105A7000E40000200548017811B101214170704710
:105A800003494FF080500860704700001400002068
:105A900004ED00E0F0B4154DAB1CEE784FEA0507BD
:105AA000D3E84F2FB24202D1BFF32F8F11E0521C27
:105AB000D4B2C3E8424F002AF2D100BFD7E84F2F3B
:105AC000541CB44200D10024E4B2C7E8434F002B79
:105AD000F4D1EB78934205D905EBC202C2E901018A
